:1000000000308A00B2280000FF00030E8301A10027
:100010000A08A0008A010408A2007708A300780853
:10002000A4007908A5007A08A600831383128C30F7
:100030008400001C1D280C182E2822088400230888
:10004000F7002408F8002508F9002608FA0020081F
:100050008A00210E8300FF0E7F0E09008A110A120A
:100060003128FB308F001E308E001430A8072A1C68
:1000700044282808633C03184428AB0A8316051259
:10008000103083128506A8012E1C4C282808633CDA
:1000900003184C28AF0AA801361C54282808633CD2
:1000A00003185428B70AA801321C5C282808633CAE
:1000B00003185C28B30AA801AA1C6C282808633C12
:1000C00003186C28AD038316851220308312850631
:1000D000A801AD080319AA10AE1C77282808633CB4
:1000E00003187728B103A801B1080319AE10B61C94
:1000F00082282808633C03188228B903A801B9089C
:100100000319B610B21C8D282808633C03188D28EB
:10011000B503A801B5080319B2104E1C9B28143072
:10012000A9072908633C03189B2883160510013092
:1001300083128506A9010C108A110A121D28831644
:1001400006148312271006182714831686148312A8
:10015000A7108618A71483160615831227110619EF
:1001600027150800840183131F308305A801A90106
:10017000831603170908C039890003131F129F1241
:100180000030031788008312870188018901031357
:10019000AA01AB01AC01AD01AE01AF01B001B101EB
:1001A000B201B301B401B501B601B701B801B9019B
:1001B000BA01BB01BC01BD01BE01BF01C001C1014B
:1001C000C201C301C401C501C601C701C801C901FB
:1001D000CA01CB01CC01CD010130CE0083168501CF
:1001E0008312850100308316850086010F3083124B
:1001F00086000030831686000C14C03083128B04F6
:1002000035309000FB308F001E308E004E1C36299A
:100210009F2027180D299F2009292A149F20271C79
:1002200015299F20A7182E140F292A102E102B08ED
:10023000AD002F08B1009F20271920299F201C29DD
:100240003614271D25299F20212936103708B9008B
:10025000A7182C299F2028293214A71C31299F2058
:100260002D2932103308B5004E1006294E18842966
:100270009F2027183D299F203929AA149F20271C39
:100280004E299F208316051083120514A71C4D29A3
:10029000AE1483168510831285143F29831605102A
:1002A000831205108316851083128510AA10AE10D4
:1002B0009F2027195D299F205929B61483160511FF
:1002C00083120515271D66299F20622983160511B3
:1002D00083120511B610A7186F299F206B29B2143D
:1002E0008316851083128514A71C78299F207429F2
:1002F0008316851083128510B2102B08AD002F08CD
:0C030000B1003708B90036290629630057
:04400E00812FFF3FC0
:00000001FF
;PIC16F886
;CRC=084E  CREATED="09-abr.-23 18:39"
