:1000000000308A0004280000FF238316900000308F
:100010008A00802829080739A000290CA100A10C1A
:10002000A10C1F30A10521082B078400A101A10A02
:10003000A00A1B28A10DA00B1A28AA08031923281F
:10004000210880042628A1092108800508002C30F9
:100050008400000803193A280130A100A001A00B78
:100060002F28A10B2E284A30A000A00B35283828B5
:10007000800B2C2808002708A9000130AA00AB013A
:100080000A202708A900AA018030AB000A20AA0193
:100090002808A9000330AC00E830AB001030AD00F8
:1000A000A001A301AA0CA90C031C5C282B08A00723
:1000B0000318A30A2C08A307A30CA00CA20CA10CE4
:1000C000AD0B52282208AA002108A9002208AB0083
:1000D000AB0AAB0303197028FF30AC002720692856
:1000E0002908AC00272008002708A900AA01AB01B5
:1000F0000A202708A900AA018030AB000A200800C6
:1001000084011F3083052830A4002930A5002A303F
:10011000A600073099008316850183128501F83007
:100120008316850083122408A7000A30A8003B200C
:100130002508A7000230A8003B202408A70074204F
:100140002508A70074202608A7000530A8003B203A
:100150002608A70074202508A7000230A8003B202D
:0A0160002508A7007420932863000F
:02400E00C43FAD
:00000001FF
;PIC12F629
;CRC=AA33  CREATED="09-abr.-23 14:57"
